:020000040800F2
:100000008006002089010008910100089301000882
:100010009501000897010008990100080000000000
:100020000000000000000000000000009B0100082C
:100030009D010008000000009F010008A1010008C8
:10004000A3010008A3010008A3010008A301000800
:10005000A3010008A3010008A3010008A3010008F0
:10006000A3010008A301000845020008A30100083D
:10007000A3010008A3010008A3010008A3010008D0
:10008000A3010008A3010008A3010008A3010008C0
:10009000A3010008A3010008A3010008A3010008B0
:1000A000A3010008A3010008A3010008A3010008A0
:1000B000A3010008A3010008A3010008A301000890
:1000C000A3010008A3010008A3010008A301000880
:1000D000A3010008A3010008A3010008A301000870
:1000E000A3010008A3010008A301000800F002F822
:1000F00000F03AF80AA090E8000C82448344AAF188
:100100000107DA4501D100F02FF8AFF2090EBAE885
:100110000F0013F0010F18BFFB1A43F0010318473B
:1001200090140000B0140000103A24BF78C878C1C1
:10013000FAD8520724BF30C830C144BF04680C60ED
:10014000704700000023002400250026103A28BF35
:1001500078C1FBD8520728BF30C148BF0B60704739
:100160001FB51FBD10B510BD00F031F81146FFF7E7
:10017000F7FF00F0D5FD00F04FF803B4FFF7F2FFF2
:1001800003BC00F057F800000948804709480047C1
:10019000FEE7FEE7FEE7FEE7FEE7FEE7FEE7FEE737
:1001A000FEE7FEE704480549054A064B7047000094
:1001B000110C0008ED0000088000002080060020DF
:1001C000800200208002002070477047704775460B
:1001D00000F02CF8AE4605006946534620F00700B3
:1001E000854618B020B5FFF7DDFFBDE820404FF091
:1001F00000064FF000074FF000084FF0000BAC4630
:10020000ACE8C009ACE8C009ACE8C009ACE8C0097A
:1002100021F007018D46704710B50446AFF300800A
:100220002046BDE81040FFF7A8BF00000048704717
:100230001800002001491820ABBEFEE7260002008E
:100240007047000080B540F27800C2F200000068FC
:1002500038B1FFE740F27800C2F200000068804742
:10026000FFE780BD81B00090009840F27801C2F2B3
:100270000001086001B0704780B582B000208DF8A1
:100280000700FFE79DF807000F2800F3A880FFE7AD
:100290009DF8071040F20000C2F20000405C4009E7
:1002A000C007002800F08780FFE79DF807100120B5
:1002B00000FA01F240F20041C4F201010868104363
:1002C00008609DF8071040F20000C2F20000405C98
:1002D000C0F3C1000146009140B1FFE7009801283A
:1002E0001CD0FFE70098022830D047E09DF80710A7
:1002F000012000FA01F340F20842C4F20102116841
:10030000194311609DF8071000FA01F240F20C4108
:10031000C4F201010868904308602FE09DF80710BF
:10032000012000FA01F340F20842C4F20102116810
:10033000994311609DF8071000FA01F240F20C4158
:10034000C4F2010108681043086017E09DF8071027
:10035000012000FA01F340F20842C4F201021168E0
:10036000194311609DF8071000FA01F240F20C41A8
:10037000C4F20101086810430860FFE79DF8071008
:1003800040F20000C2F20000405C00F0070046F6B8
:100390008011CFF6677188420CD0FFE79DF8070007
:1003A00040F20001C2F20001095C01F0070100F017
:1003B0004DF8FFE70CE09DF80710012000FA01F26C
:1003C00040F20041C4F20101086890430860FFE771
:1003D000FFE79DF8070001308DF8070052E702B0F3
:1003E00080BD000080B582B08DF806008DF8051044
:1003F00000929DF806009DF80510012200F0BEF95C
:1004000020B9FFE700208DF807001BE0009800F0FE
:10041000EFFF00F019FB20B9FFE700208DF807007F
:1004200010E09DF806009DF80510002200F0A6F9E6
:1004300020B9FFE700208DF8070003E001208DF8C8
:100440000700FFE79DF8070002B080BD82B08DF87D
:1004500006008DF8051000208DF804009DF80600B8
:100460000F2805DCFFE79DF80500032805DBFFE703
:100470009DF804008DF8070030E09DF80600800824
:100480008DF803009DF8060000F003008DF80600CB
:100490009DF8060081000F2000FA01F39DF803206B
:1004A0000821C4F2010151F82200984341F82200CA
:1004B0009DF805009DF80620920000FA02F39DF8D1
:1004C000032051F82200184341F8220001208DF842
:1004D00004009DF804008DF80700FFE79DF8070071
:1004E00002B0704784B08DF80F008DF80E100292A4
:1004F00000208DF807000298002843D0FFE79DF800
:100500000F000146009140B1FFE70098012814D088
:10051000FFE70098022820D02FE040F60800C4F240
:10052000010000689DF80E10C84000F0010002991B
:10053000087001208DF8070023E040F60840C4F25F
:10054000010000689DF80E10C84000F001000299FB
:10055000087001208DF8070013E041F20800C4F292
:10056000010000689DF80E10C84000F001000299DB
:10057000087001208DF8070003E000208DF80700C7
:10058000FFE703E000208DF80700FFE79DF8070074
:1005900004B0704782B08DF807008DF806108DF812
:1005A000052000208DF804009DF807000146009109
:1005B00048B1FFE7009801284BD0FFE700980228D8
:1005C00000F08D80D1E09DF8060007281BDCFFE7D6
:1005D0009DF8060081000F2000FA01F240F60001AC
:1005E000C4F201010868904308609DF805009DF879
:1005F0000620920000FA02F2086810430860012009
:100600008DF8040024E09DF806000F281BDCFFE7AE
:100610009DF8060081000F2000FA01F240F6040167
:10062000C4F201010868904308609DF805009DF838
:100630000620920000FA02F20868104308600120C8
:100640008DF8040003E000208DF80400FFE7FFE7C9
:100650008FE09DF8060007281BDCFFE79DF80600E9
:1006600081000F2000FA01F240F60041C4F20101BE
:100670000868904308609DF805009DF806209200E8
:1006800000FA02F208681043086001208DF80400A7
:1006900024E09DF806000F281BDCFFE79DF806000C
:1006A00081000F2000FA01F240F60441C4F201017A
:1006B0000868904308609DF805009DF806209200A8
:1006C00000FA02F208681043086001208DF8040067
:1006D00003E000208DF80400FFE7FFE749E09DF804
:1006E000060007281BDCFFE79DF8060081000F20AD
:1006F00000FA01F241F20001C4F2010108689043DE
:1007000008609DF805009DF80620920000FA02F2AC
:1007100008681043086001208DF8040024E09DF86B
:1007200006000F281BDCFFE79DF8060081000F2064
:1007300000FA01F241F20401C4F201010868904399
:1007400008609DF805009DF80620920000FA02F26C
:1007500008681043086001208DF8040003E00020C1
:100760008DF80400FFE7FFE703E000208DF80400A8
:10077000FFE79DF8040002B07047000085B08DF8D7
:1007800013008DF812108DF8112000208DF8100044
:100790009DF813000146039140B1FFE7039801283B
:1007A00031D0FFE7039802285AD086E09DF8110067
:1007B0000146029198B1FFE7029801281ED1FFE798
:1007C0009DF81210012000FA01F340F60C02C4F269
:1007D00001021168194311608DF8100012E09DF8B4
:1007E0001210012000FA01F340F60C02C4F20102DB
:1007F0001168994311608DF8100003E000208DF816
:100800001000FFE75DE09DF811000146019198B1ED
:10081000FFE7019801281ED1FFE79DF81210012083
:1008200000FA01F340F60C42C4F2010211681943C8
:1008300011608DF8100012E09DF81210012000FAEE
:1008400001F340F60C42C4F20102116899431160B1
:100850008DF8100003E000208DF81000FFE730E075
:100860009DF811000146009198B1FFE7009801281A
:100870001ED1FFE79DF81210012000FA01F341F2AA
:100880000C02C4F201021168194311608DF81000C6
:1008900012E09DF81210012000FA01F341F20C025F
:1008A000C4F201021168994311608DF8100003E051
:1008B00000208DF81000FFE703E000208DF8100005
:1008C000FFE79DF8100005B07047000081B08DF87B
:1008D000030000208DF802009DF803001F280DDCA6
:1008E000FFE79DF80310012000FA01F14EF200121B
:1008F000CEF2000211608DF802002DE09DF8030099
:100900003F280FDCFFE79DF80300A0F12001012044
:1009100000FA01F14EF20412CEF2000211608DF8DD
:10092000020018E09DF803005F280FDCFFE79DF848
:100930000300A0F14001012000FA01F14EF208127B
:10094000CEF2000211608DF8020003E000208DF865
:100950000200FFE7FFE7FFE79DF8020001B07047E4
:1009600082B08DF807008DF8061000208DF8050084
:100970009DF807000146009140B1FFE7009801286B
:1009800013D0FFE7009802281ED02CE09DF8061037
:10099000012000FA01F341F21402C4F202021168CC
:1009A000194311608DF8050021E09DF80610012023
:1009B00000FA01F341F21C02C4F202021168194369
:1009C00011608DF8050012E09DF80610012000FA74
:1009D00001F341F21802C4F20202116819431160D6
:1009E0008DF8050003E000208DF80500FFE79DF875
:1009F000050002B07047000081B000208DF80300B0
:100A000041F20001C4F20201086820F4802008606D
:100A1000086840F480300860FFE741F20000C4F24B
:100A200002000068400CC00708B9FFE7F5E741F293
:100A30000401C4F20201012008608DF803009DF852
:100A4000030001B07047000080B584B002900298A6
:100A500042F20041C4F6741100F0DEFC00F09CFC90
:100A6000002244F20003C4F28F0300F0B9FA00F050
:100A700011FC01909DF8070058BBFFE701984EF26A
:100A80001401CEF2000108604EF21001CEF2000116
:100A9000086840F001000860FFE74EF21000CEF257
:100AA00000000068C003002801D4FFE7F5E74EF21C
:100AB0001001CEF20001086820F0010008604EF23B
:100AC0001801CEF200010020086001208DF80F000F
:100AD00003E000208DF80F00FFE79DF80F0004B041
:100AE00080BD000080B500F001F880BD84B000201A
:100AF0000390029041F20001C4F20201086840F440
:100B000080300860FFE741F20000C4F20200006894
:100B100000F400300290039801300390FFE702993F
:100B20000020019039B9FFE70398B0F5A06018BF25
:100B300001200190FFE70198C0070028E3D1FFE7FB
:100B400041F20000C4F2020000688003002803D5CF
:100B5000FFE70120029002E000200290FFE70298E8
:100B6000012851D1FFE742F20001C4F202010868F6
:100B700040F010000860086820F00700086008686E
:100B800040F00200086041F20401C4F20201009149
:100B90000868086008680860086840F480600860B9
:100BA000086820F47C100860086840F4E8100860C9
:100BB00041F20001C4F20201086840F08070086050
:100BC000FFE741F20000C4F2020000688001002843
:100BD00001D4FFE7F5E741F20401C4F2020108681D
:100BE00020F003000860086840F002000860FFE79A
:100BF00041F20400C4F20200006800F00C00082872
:100C000001D0FFE7F4E700E0FFE704B07047000021
:100C100080B541F20002C4F20202106840F0010007
:100C2000106041F20401C4F2020108680023CFF60B
:100C3000FF031840086010684FF6FF73CFF6F663A5
:100C400018401060106820F480201060086820F4BC
:100C5000FE00086041F20801C4F202014FF41F00D7
:100C60000860FFF73FFF4EF60851CEF200014FF04B
:100C70000060086080BD000080B584B040F21100C3
:100C8000C2F200000078022807D1FFE740F211010C
:100C9000C2F20001002008703FE040F27C00C2F286
:100CA0000000007808B9FFE737E040F21001C2F217
:100CB0000001002008700DF10F0102910190FFE783
:100CC000019841F2873188420FD8FFE7029A01204C
:100CD0000421FFF707FC0298007808B9FFE704E059
:100CE000FFE7019801300190EAE7029800780128B7
:100CF0000CD1FFE740F21001C2F2000101200870A0
:100D000040F27C01C2F20001087006E040F27C0172
:100D1000C2F2000100200870FFE704B080BD0000AF
:100D200080B596B000200E901590FFF765FE022169
:100D300010910846FFF714FE109803210F91FFF75A
:100D40000FFE0E991098FFF70BFE109A0E980121D6
:100D50001191FFF71FFC109A0E981146FFF71AFC2D
:100D60000F99109A0E98FFF715FC109A11990846E2
:100D7000FFF710FC109A11981146FFF70BFC0F9922
:100D8000109A1198FFF706FC119804210822FFF72A
:100D900001FC40F67940C0F6000014901498FFF76B
:100DA00061FA0A20FFF792FDFFF766FAFFE70520D8
:100DB0008DF84F0000200C9003210B9101220D9221
:100DC000FFF7DCFC0B990D9A1046FFF7D7FC44F2B5
:100DD0000000C4F29C50FFF737FE0B990C9A1046A6
:100DE000FFF7CCFC0B990C9A0D98FFF7C7FC0D99F7
:100DF00040F21100C2F2000001700078E8B3FFE792
:100E000040F21101C2F20001022008700A208DF8A0
:100E10004F00FFE79DF84F00411E8DF84F1058B36B
:100E2000FFE7002009900221089101220A92FFF7B2
:100E3000A5FC0A9A08991046FFF7A0FC0020C4F20E
:100E4000FA30FFF701FE0899099A1046FFF796FC61
:100E50000899099A0A98FFF791FC40F21100C2F232
:100E60000000007838B9FFE740F21001C2F200013B
:100E70000020087000E0CDE7FFE740F27C01C2F2FD
:100E800000010120087000201290FFE740F27C0072
:100E9000C2F2000001780020079081B1FFE71299AB
:100EA0000020132907900AD8FFE740F21100C2F290
:100EB00000000078002818BF01200790FFE707987E
:100EC000C00720B3FFE740F21100C2F20000012288
:100ED00005920270002006901146FFF74FFC059A1C
:100EE00010461146FFF74AFC0020C4F27A30FFF7A3
:100EF000ABFD0599069A1046FFF740FC0599069A46
:100F00000846FFF73BFC129801301290BEE740F212
:100F10007C01C2F200010020087040F21101C2F20F
:100F200000010120087040F21000C2F200000078B9
:100F300030BBFFE740F21100C2F200000078F8B1C8
:100F4000FFE732208DF84F00FFE79DF84F00411E6C
:100F50008DF84F1068B1FFE7002002210391642251
:100F60000492FFF73FFA0399049A0120FFF73AFA37
:100F7000EBE740F21001C2F20001012008702DE001
:100F800040F21000C2F200000078012825D1FFE7EE
:100F900040F21100C2F200000078F0B1FFE700203B
:100FA00001900221009101220292FFF7E7FB029AD1
:100FB00000991046FFF7E2FB44F20000C4F29C5097
:100FC000FFF742FD0099019A1046FFF7D7FB009901
:100FD000019A0298FFF7D2FBFFE7FFE7E7E6000080
:100FE0002DE9C04130B4DFF8A4C23CEA111418BFA7
:100FF0003CEA131400F0ED801CEA111481EA0305A9
:1010000044EAD57418BF1CEA131500F0C880A4EB9D
:10101000050404F17F7404F500344FF0004545EAFF
:10102000C12145EAC32341EA505143EA52534FEAF2
:10103000C0204FEAC222994208BF904200F09D8032
:101040004FEA13650FF24416765D4FEA134506FB2F
:1010500005F7C7F1807706FB07F74FEAD737A7FBFD
:1010600003687642A7FB06CEC8F5803838BFA8F1E2
:10107000010807FB08E6A6FB028C4FF0000EE6FB1A
:1010800003CEDCF1000CCEF1004E38BFAEF1010E04
:10109000A6FB0C584FF00007E6FB0E87A1FB08C625
:1010A000A0FB07CE16EB0E064FF0000545F100053C
:1010B000E1FB076515F1E04E7EBFA4F580345FEAE1
:1010C00046066D4116F1800745F100054FEA1727E6
:1010D00047EA05674FEA15254FEA0666A6F1DE46A0
:1010E000B6F1805F20D9384605EBC47124F0010CBD
:1010F00001EB0C11BCF1FE6F02D8F0BCBDE8008121
:1011000024425CBF01F5801E9EEAC47F02D4F0BC7D
:10111000BDE80081244200F13980A1F1C041F0BC5A
:10112000BDE8004100F031B94FEAD02040EA41501B
:101130004FEAD1214FEAD22242EA43524FEAD32367
:10114000A7FB028607FB036605FB02661EEA0E0F7D
:1011500058BFA6EB0056B6EB00564FEA520E4EEAC9
:10116000C37E18EB0E0E56EB530EBCD518EB0208DF
:101170005E417F1C55F10005B5E74FF480154FF037
:1011800000074FF000064FF00008ACE701F1C04146
:1011900001F000414FF00000F0BCBDE800810CEA16
:1011A000131511EA0C1F00D00CE013EA0C1F00F01D
:1011B00026804FF0000081EA030101F00041F0BCFD
:1011C000BDE80081F0BCBDE8004181EA030100F008
:1011D000DCB8F0BCBDE8004170B500F088F800BF95
:1011E000097EFC3E00F007B84FF0000081EA0301E1
:1011F00001F00041704781EA030100F0C6B8F0BC7D
:10120000BDE8004122494FF000007047FFFDFBF9A7
:10121000F7F5F4F2F0EEEDEBE9E8E6E4E3E1E0DE29
:10122000DDDBDAD8D7D5D4D3D1D0CFCDCCCBCAC89B
:10123000C7C6C5C4C2C1C0BFBEBDBCBBBAB9B8B7C2
:10124000B6B5B4B3B2B1B0AFAEADACABAAA9A8A8B5
:10125000A7A6A5A4A3A3A2A1A09F9F9E9D9C9C9B83
:101260009A9999989797969595949393929191902E
:101270008F8F8E8E8D8C8C8B8B8A898988888787BF
:101280008685858484838382828181800000FF0734
:101290000000F87F4FEA1153A3F58063D3F11E03DA
:1012A000A8BFD3F1200C08DB4FF0004242EAC12274
:1012B00052EA505232FA03F0704709420BD4102B15
:1012C000C4BF0020704703F5787CBCF1FF3F05D018
:1012D0004FF0FF3070474FF00000704770B500F0DE
:1012E00006F800BF4992248000207047F0E70EF115
:1012F000020E2EF0030E5EF8046B364205D4012A6E
:1013000043EB030515F5001F12D8012841EB010C32
:101310001CF5001F0CD80ED14FEAD17C0CEB4C0C05
:101320000CF1020C15F5001F08BF4CEBD37C04E058
:101330004FF0080C01E04FEAD37C0CEB4C0526FA89
:1013400005F606F00706B6F1040C06D20EEB860C85
:10135000BDE870404CF0010C6047DFE80CF0090B71
:1013600002024FF00041A1F500214FF0000070BDD6
:1013700019461046012851EB010418BFD4F500149A
:1013800084BF002001F0004170BD0808A0F50011E5
:101390004FEA31017047000043004FEAD30C4FEA97
:1013A0003C0C43401FBF40070CF1605113F0FE4F4F
:1013B00070471CF0006F03D10CF000410020704713
:1013C0000CF0004343EA507040EACC0010B500F046
:1013D000A4F800BF000000924FEA0001FFF7D5BF5C
:1013E0004FF00041A1F500214FF0000070470000D0
:1013F000B0FA80F310FA03F2C3F19D030AD0D905C5
:1014000001EB1220530638BF704700F1010008BFFE
:1014100020F00100704700004FF47F0C1CEAD0124E
:101420001EBF1CEAD11392EA0C0F93EA0C0F00F0D6
:10143000478090EA010F48BF42F480724FF0004CA1
:101440004CEA00204CEA012102EB0302A0FB01134D
:10145000A2F50002002918BF43F001035B0028BF7A
:101460004FEA330342EB22425FEA132C4CEBC250AB
:101470002EBFBCEB436FB2F57C0F70474FEA036C95
:10148000BCF1004F08BF20F00100B2F57C0F38BF5F
:1014900070470BD582F0FF0212F5803FC8BF70473E
:1014A00000F1C040D8BF00F00040704700F5000CCC
:1014B0005FEA4C0C48BF7047B0F1C04000F073B811
:1014C0000CEAD11390EA010F48BF42F480726245E2
:1014D00038BF634504D280EA010000F00040704745
:1014E00010B500F01AF800BF8900013E00F007B8FF
:1014F00000F009B85FEA410C5FEA1C6C08D080EA92
:10150000010000F050B85FEA400C5FEA1C6CF6D1B5
:101510004FF00040A0F5800070470EF1020E2EF053
:10152000030E5EF8044B244204D44FEA4102B2F1A8
:101530007F4F11D84FEA4003B3F17F4F0CD80ED143
:101540004FEAD07C0CEB4C0C0CF1020CB2F17F4F4B
:1015500008BF4CEBD17C04E04FF0080C01E04FEAEF
:10156000D17C0CEB4C0324FA03F404F00704B4F12F
:10157000040C06D20EEB840CBDE810404CF0010CBC
:101580006047DFE80CF0070802024FF00040A0F5CA
:10159000800010BD0846420018BFD2F1807288BF9B
:1015A00000F0004010BDFF2141EAD050C005704757
:1015B000D0150008000000201400000028010008D9
:1015C000E415000818000020680600004401000827
:1015D00028101010211010101010101010101010E2
:0415E0000101000005
:040000050800018965
:00000001FF
